:1000000048EF01F054616E717565000054616E71C6
:100010007565000054616E71756520766163696F66
:10002000000054616E7175652042616A6F00546111
:100030006E717565204D6564696F000054616E7165
:100040007565206C6C656E6F0000EA6A0E0EE96ED5
:10005000EF5007E0A50E006E002EFED70000EF2E39
:10006000F9D7120013B002D08C9601D08C869596E9
:1000700013B202D08C9801D08C88959813B402D01A
:100080008C9A01D08C8A959A13B602D08C9C01D0A0
:100090008C8C959C00008C84959400008C94959495
:1000A0001200146A9586000E83B6010E141295880C
:1000B000000E83B8010E006ED89000360050141266
:1000C000958A000E83BA010E006E00360036FC0ED3
:1000D000001600501412958C000E83BC010E006EA9
:1000E000003600360036F80E00160050141214C008
:1000F00001F0120095869588958A958C8C82959250
:1001000000008C8495940000CCDF01C013F08C9427
:10011000959400008C849594C4DF01C012F08C94F7
:10012000959495969598959A959C1338006EF00E37
:10013000001600501210016EA4EF00F095949590F7
:1001400095928C909590D6D701C012F001BEFBD746
:10015000105202E18C9001D08C80959000008C921E
:10016000959200008C9495941138126E0F0E121611
:1001700012C013F077DF11500F0B126E136E72DF87
:100180001200280E0A6E0C0E0B6E010E0C6E060E7F
:100190000D6E8C9495948C9095908C9295929596EA
:1001A0009598959A959C9594959095920F0E0E6EB4
:1001B0004CDF010E096E0950030808E3030E136EAD
:1001C00051DF050E0E6E41DF092AF5D7020E136EC0
:1001D00049DF050E0E6E39DF096A095003080DE389
:1001E000036A09500A0FE96E000E0320EA6EEFCF92
:1001F00011F0106AA3DF092AF0D75BEF01F00D2C94
:1002000001D003D0400E0E6E01D00E6A010E0C5CC0
:100210000E260E5080090F6E106A116E8FDF1200CD
:100220000B50070A07E00B0A0AE0060A10E0020A70
:1002300014E018D0010E0C6E0D6EE1DF18D0106ABC
:10024000010E116E7BDF020E0E6EFFDE10D0010E6E
:100250000C6E020E0D6ED3DF0AD0106A100E116EF6
:100260006DDF05D0010E106E0BC011F067DF1200BC
:100270000900F5520CE0F6CF09F0F7CF0AF0F5CF00
:100280000BF0CEDF09C0F6FF0AC0F7FFF1D712006E
:10029000F86AD09E500ED36ED350056A046AC150DE
:1002A000C00B0F09C16E070EB46E2F0E926E700E4A
:1002B000D36ED35066D70C0E0B6EB2DF040E0C6EED
:1002C000010E0D6E9CDF040EF66E000EF76ED0DF91
:1002D000080E096EFA0E0E6EB8DE092EFBD70C0E54
:1002E0000B6E9EDF030E0C6E010E0D6E88DF0C0E82
:1002F000F66E000EF76EBCDF010E066E076E086E1E
:10030000928080B00AD0030E0C6E020E0D6E77DF65
:10031000140EF66E000EF76EABDF928080A00CD04C
:10032000062C0AD0030E0C6E020E0D6E68DF220E34
:10033000F66E000EF76E9CDF928280A20FD0072C23
:100340000DD0020E066E030E0C6E020E0D6E57DF00
:100350002E0EF66E000EF76E8BDF02D0010E066ECB
:10036000928480A410D0082C0ED0020E066E076E68
:10037000030E0C6E020E0D6E42DF3C0EF66E000E8A
:10038000F76E76DF02D0010E076E928680A606D049
:10039000928880A803D0929A898A02D0929A899AE8
:0A03A000640E0E6E52DEACD70300AF
:020000040030CA
:0E00000027C83E1E0087A1000FC00FE00F4072
:00000001FF
;PIC18F4550
;CRC=D4E8  CREATED="23-nov-20 15:35"
